{
  "contractName": "HashRecord",
  "abi": [
    {
      "inputs": [
        {
          "internalType": "uint256",
          "name": "",
          "type": "uint256"
        },
        {
          "internalType": "uint256",
          "name": "",
          "type": "uint256"
        }
      ],
      "name": "fuzzyHashes",
      "outputs": [
        {
          "internalType": "string",
          "name": "",
          "type": "string"
        }
      ],
      "stateMutability": "view",
      "type": "function"
    },
    {
      "inputs": [
        {
          "internalType": "string",
          "name": "fuzzyHash",
          "type": "string"
        },
        {
          "internalType": "uint256",
          "name": "ipnsHash",
          "type": "uint256"
        }
      ],
      "name": "setFuzzyHash",
      "outputs": [],
      "stateMutability": "nonpayable",
      "type": "function"
    },
    {
      "inputs": [
        {
          "internalType": "uint256",
          "name": "ipnsHash",
          "type": "uint256"
        }
      ],
      "name": "getFuzzyHashes",
      "outputs": [
        {
          "internalType": "string[]",
          "name": "",
          "type": "string[]"
        }
      ],
      "stateMutability": "view",
      "type": "function"
    }
  ],
  "bytecode": "0x608060405234801561001057600080fd5b5061074d806100206000396000f3fe608060405234801561001057600080fd5b50600436106100415760003560e01c80636183539a14610046578063bebe7ad114610076578063e21d61a114610092575b600080fd5b610060600480360381019061005b919061039c565b6100c2565b60405161006d9190610475565b60405180910390f35b610090600480360381019061008b91906104fc565b61017b565b005b6100ac60048036038101906100a7919061055c565b6101ce565b6040516100b99190610695565b60405180910390f35b600060205281600052604060002081815481106100de57600080fd5b906000526020600020016000915091505080546100fa906106e6565b80601f0160208091040260200160405190810160405280929190818152602001828054610126906106e6565b80156101735780601f1061014857610100808354040283529160200191610173565b820191906000526020600020905b81548152906001019060200180831161015657829003601f168201915b505050505081565b6000808281526020019081526020016000208383909180600181540180825580915050600190039060005260206000200160009091929091929091929091925091906101c89291906102b9565b50505050565b6060600080838152602001908152602001600020805480602002602001604051908101604052809291908181526020016000905b828210156102ae578382906000526020600020018054610221906106e6565b80601f016020809104026020016040519081016040528092919081815260200182805461024d906106e6565b801561029a5780601f1061026f5761010080835404028352916020019161029a565b820191906000526020600020905b81548152906001019060200180831161027d57829003601f168201915b505050505081526020019060010190610202565b505050509050919050565b8280546102c5906106e6565b90600052602060002090601f0160209004810192826102e7576000855561032e565b82601f1061030057803560ff191683800117855561032e565b8280016001018555821561032e579182015b8281111561032d578235825591602001919060010190610312565b5b50905061033b919061033f565b5090565b5b80821115610358576000816000905550600101610340565b5090565b600080fd5b600080fd5b6000819050919050565b61037981610366565b811461038457600080fd5b50565b60008135905061039681610370565b92915050565b600080604083850312156103b3576103b261035c565b5b60006103c185828601610387565b92505060206103d285828601610387565b9150509250929050565b600081519050919050565b600082825260208201905092915050565b60005b838110156104165780820151818401526020810190506103fb565b83811115610425576000848401525b50505050565b6000601f19601f8301169050919050565b6000610447826103dc565b61045181856103e7565b93506104618185602086016103f8565b61046a8161042b565b840191505092915050565b6000602082019050818103600083015261048f818461043c565b905092915050565b600080fd5b600080fd5b600080fd5b60008083601f8401126104bc576104bb610497565b5b8235905067ffffffffffffffff8111156104d9576104d861049c565b5b6020830191508360018202830111156104f5576104f46104a1565b5b9250929050565b6000806000604084860312156105155761051461035c565b5b600084013567ffffffffffffffff81111561053357610532610361565b5b61053f868287016104a6565b9350935050602061055286828701610387565b9150509250925092565b6000602082840312156105725761057161035c565b5b600061058084828501610387565b91505092915050565b600081519050919050565b600082825260208201905092915050565b6000819050602082019050919050565b600082825260208201905092915050565b60006105d1826103dc565b6105db81856105b5565b93506105eb8185602086016103f8565b6105f48161042b565b840191505092915050565b600061060b83836105c6565b905092915050565b6000602082019050919050565b600061062b82610589565b6106358185610594565b935083602082028501610647856105a5565b8060005b85811015610683578484038952815161066485826105ff565b945061066f83610613565b925060208a0199505060018101905061064b565b50829750879550505050505092915050565b600060208201905081810360008301526106af8184610620565b905092915050565b7f4e487b7100000000000000000000000000000000000000000000000000000000600052602260045260246000fd5b600060028204905060018216806106fe57607f821691505b602082108103610711576107106106b7565b5b5091905056fea2646970667358221220d188bc9fc2b3fba3b645ff0116224c17a0a4f6b7577745657ebea9a58294e4ab64736f6c634300080d0033",
  "immutableReferences": {},
  "source": "// SPDX-License-Identifier: MIT\npragma solidity >=0.4.22 <0.9.0;\n\ncontract HashRecord {\n   // IPNS hash: SHA-256\n   // Fuzzy hash: string\n   mapping(uint256 => string[]) public fuzzyHashes;\n\n   // Store fuzzy hash mapped to IPNS hash\n   function setFuzzyHash(string calldata fuzzyHash, uint256 ipnsHash) public {\n      fuzzyHashes[ipnsHash].push(fuzzyHash);\n   }\n   \n   // Get fuzzy hash using IPNS hash - user should make sure matching fuzzy hash exists for the given IPNS hash\n   function getFuzzyHashes(uint256 ipnsHash) public view returns (string[] memory) {\n      return fuzzyHashes[ipnsHash];\n   }\n}\n",
  "sourcePath": "/home/teo/GitHub/EvidenceChain/ethereum_network/tuffy/contracts/HashRecord.sol",
  "compiler": {
    "name": "solc",
    "version": "0.8.13+commit.abaa5c0e.Emscripten.clang"
  },
  "schemaVersion": "3.4.6",
  "updatedAt": "2022-03-31T11:23:13.511Z",
  "devdoc": {
    "kind": "dev",
    "methods": {},
    "version": 1
  },
  "userdoc": {
    "kind": "user",
    "methods": {},
    "version": 1
  }
}