{
  "contractName": "HashRecord",
  "abi": [
    {
      "inputs": [
        {
          "internalType": "string",
          "name": "",
          "type": "string"
        },
        {
          "internalType": "uint256",
          "name": "",
          "type": "uint256"
        }
      ],
      "name": "fuzzyHashes",
      "outputs": [
        {
          "internalType": "string",
          "name": "",
          "type": "string"
        }
      ],
      "stateMutability": "view",
      "type": "function",
      "constant": true
    },
    {
      "inputs": [
        {
          "internalType": "string",
          "name": "fuzzyHash",
          "type": "string"
        },
        {
          "internalType": "string",
          "name": "ipnsHash",
          "type": "string"
        }
      ],
      "name": "setFuzzyHash",
      "outputs": [],
      "stateMutability": "nonpayable",
      "type": "function"
    },
    {
      "inputs": [
        {
          "internalType": "string",
          "name": "ipnsHash",
          "type": "string"
        }
      ],
      "name": "getFuzzyHashes",
      "outputs": [
        {
          "internalType": "string[]",
          "name": "",
          "type": "string[]"
        }
      ],
      "stateMutability": "view",
      "type": "function",
      "constant": true
    },
    {
      "inputs": [
        {
          "internalType": "string",
          "name": "ipnsHash",
          "type": "string"
        }
      ],
      "name": "deleteHashes",
      "outputs": [],
      "stateMutability": "nonpayable",
      "type": "function"
    }
  ],
  "bytecode": "0x608060405234801561001057600080fd5b506109ce806100206000396000f3fe608060405234801561001057600080fd5b506004361061004c5760003560e01c80635b1866ab14610051578063881d4ccc14610081578063b5f04d9a1461009d578063f1e2169d146100cd575b600080fd5b61006b600480360381019061006691906105f0565b6100e9565b60405161007891906106d4565b60405180910390f35b61009b600480360381019061009691906106f6565b6101b8565b005b6100b760048036038101906100b291906106f6565b6101e5565b6040516100c4919061084b565b60405180910390f35b6100e760048036038101906100e2919061086d565b6102dc565b005b600082805160208101820180518482526020830160208501208183528095505050505050818154811061011b57600080fd5b9060005260206000200160009150915050805461013790610914565b80601f016020809104026020016040519081016040528092919081815260200182805461016390610914565b80156101b05780601f10610185576101008083540402835291602001916101b0565b820191906000526020600020905b81548152906001019060200180831161019357829003601f168201915b505050505081565b6000816040516101c89190610981565b908152602001604051809103902060006101e29190610338565b50565b60606000826040516101f79190610981565b9081526020016040518091039020805480602002602001604051908101604052809291908181526020016000905b828210156102d157838290600052602060002001805461024490610914565b80601f016020809104026020016040519081016040528092919081815260200182805461027090610914565b80156102bd5780601f10610292576101008083540402835291602001916102bd565b820191906000526020600020905b8154815290600101906020018083116102a057829003601f168201915b505050505081526020019060010190610225565b505050509050919050565b6000816040516102ec9190610981565b908152602001604051809103902082908060018154018082558091505060019003906000526020600020016000909190919091509080519060200190610333929190610359565b505050565b508054600082559060005260206000209081019061035691906103df565b50565b82805461036590610914565b90600052602060002090601f01602090048101928261038757600085556103ce565b82601f106103a057805160ff19168380011785556103ce565b828001600101855582156103ce579182015b828111156103cd5782518255916020019190600101906103b2565b5b5090506103db9190610403565b5090565b5b808211156103ff57600081816103f69190610420565b506001016103e0565b5090565b5b8082111561041c576000816000905550600101610404565b5090565b50805461042c90610914565b6000825580601f1061043e575061045d565b601f01602090049060005260206000209081019061045c9190610403565b5b50565b6000604051905090565b600080fd5b600080fd5b600080fd5b600080fd5b6000601f19601f8301169050919050565b7f4e487b7100000000000000000000000000000000000000000000000000000000600052604160045260246000fd5b6104c78261047e565b810181811067ffffffffffffffff821117156104e6576104e561048f565b5b80604052505050565b60006104f9610460565b905061050582826104be565b919050565b600067ffffffffffffffff8211156105255761052461048f565b5b61052e8261047e565b9050602081019050919050565b82818337600083830152505050565b600061055d6105588461050a565b6104ef565b90508281526020810184848401111561057957610578610479565b5b61058484828561053b565b509392505050565b600082601f8301126105a1576105a0610474565b5b81356105b184826020860161054a565b91505092915050565b6000819050919050565b6105cd816105ba565b81146105d857600080fd5b50565b6000813590506105ea816105c4565b92915050565b600080604083850312156106075761060661046a565b5b600083013567ffffffffffffffff8111156106255761062461046f565b5b6106318582860161058c565b9250506020610642858286016105db565b9150509250929050565b600081519050919050565b600082825260208201905092915050565b60005b8381101561068657808201518184015260208101905061066b565b83811115610695576000848401525b50505050565b60006106a68261064c565b6106b08185610657565b93506106c0818560208601610668565b6106c98161047e565b840191505092915050565b600060208201905081810360008301526106ee818461069b565b905092915050565b60006020828403121561070c5761070b61046a565b5b600082013567ffffffffffffffff81111561072a5761072961046f565b5b6107368482850161058c565b91505092915050565b600081519050919050565b600082825260208201905092915050565b6000819050602082019050919050565b600082825260208201905092915050565b60006107878261064c565b610791818561076b565b93506107a1818560208601610668565b6107aa8161047e565b840191505092915050565b60006107c1838361077c565b905092915050565b6000602082019050919050565b60006107e18261073f565b6107eb818561074a565b9350836020820285016107fd8561075b565b8060005b85811015610839578484038952815161081a85826107b5565b9450610825836107c9565b925060208a01995050600181019050610801565b50829750879550505050505092915050565b6000602082019050818103600083015261086581846107d6565b905092915050565b600080604083850312156108845761088361046a565b5b600083013567ffffffffffffffff8111156108a2576108a161046f565b5b6108ae8582860161058c565b925050602083013567ffffffffffffffff8111156108cf576108ce61046f565b5b6108db8582860161058c565b9150509250929050565b7f4e487b7100000000000000000000000000000000000000000000000000000000600052602260045260246000fd5b6000600282049050600182168061092c57607f821691505b60208210810361093f5761093e6108e5565b5b50919050565b600081905092915050565b600061095b8261064c565b6109658185610945565b9350610975818560208601610668565b80840191505092915050565b600061098d8284610950565b91508190509291505056fea26469706673582212207c17a14862acc6e8d6ba16fe44322c11d5130ed1d8ac701a430407e412f2924464736f6c634300080d0033",
  "immutableReferences": {},
  "source": "// SPDX-License-Identifier: MIT\npragma solidity >=0.4.22 <0.9.0;\n\ncontract HashRecord {\n   // IPNS hash: string\n   // Fuzzy hashes: string[]\n   mapping(string => string[]) public fuzzyHashes;\n\n   // Add modifier for access restriction\n\n   // Store fuzzy hash mapped to IPNS hash\n   function setFuzzyHash(string memory fuzzyHash, string memory ipnsHash) public {\n      fuzzyHashes[ipnsHash].push(fuzzyHash);\n   }\n   \n   // Get fuzzy hash using IPNS hash - user should make sure matching fuzzy hash exists for the given IPNS hash\n   function getFuzzyHashes(string memory ipnsHash) public view returns (string[] memory) {\n      return fuzzyHashes[ipnsHash];\n   }\n\n   // Delete hashes stored on particular IPNS hash\n   function deleteHashes(string memory ipnsHash) public {\n      delete fuzzyHashes[ipnsHash];\n   }\n}\n",
  "sourcePath": "/home/teo/GitHub/EvidenceChain/ethereum_network/tuffy/contracts/HashRecord.sol",
  "compiler": {
    "name": "solc",
    "version": "0.8.13+commit.abaa5c0e.Emscripten.clang"
  },
  "schemaVersion": "3.4.6",
  "updatedAt": "2022-04-13T13:04:45.187Z",
  "networkType": "ethereum",
  "devdoc": {
    "kind": "dev",
    "methods": {},
    "version": 1
  },
  "userdoc": {
    "kind": "user",
    "methods": {},
    "version": 1
  }
}