{
  "contractName": "HashRecord",
  "abi": [
    {
      "inputs": [
        {
          "internalType": "uint256",
          "name": "",
          "type": "uint256"
        }
      ],
      "name": "fuzzyHashes",
      "outputs": [
        {
          "internalType": "string",
          "name": "",
          "type": "string"
        }
      ],
      "stateMutability": "view",
      "type": "function",
      "constant": true
    },
    {
      "inputs": [
        {
          "internalType": "string",
          "name": "fuzzyHash",
          "type": "string"
        },
        {
          "internalType": "uint256",
          "name": "ipfsHash",
          "type": "uint256"
        }
      ],
      "name": "setFuzzyHash",
      "outputs": [],
      "stateMutability": "nonpayable",
      "type": "function"
    },
    {
      "inputs": [
        {
          "internalType": "uint256",
          "name": "ipfsHash",
          "type": "uint256"
        }
      ],
      "name": "getFuzzyHash",
      "outputs": [
        {
          "internalType": "string",
          "name": "",
          "type": "string"
        }
      ],
      "stateMutability": "view",
      "type": "function",
      "constant": true
    }
  ],
  "bytecode": "0x608060405234801561001057600080fd5b50610553806100206000396000f3fe608060405234801561001057600080fd5b50600436106100415760003560e01c8063069b89c91461004657806331ed05df14610076578063bebe7ad1146100a6575b600080fd5b610060600480360381019061005b9190610310565b6100c2565b60405161006d91906103d6565b60405180910390f35b610090600480360381019061008b9190610310565b610162565b60405161009d91906103d6565b60405180910390f35b6100c060048036038101906100bb919061045d565b610206565b005b600060205280600052604060002060009150905080546100e1906104ec565b80601f016020809104026020016040519081016040528092919081815260200182805461010d906104ec565b801561015a5780601f1061012f5761010080835404028352916020019161015a565b820191906000526020600020905b81548152906001019060200180831161013d57829003601f168201915b505050505081565b60606000808381526020019081526020016000208054610181906104ec565b80601f01602080910402602001604051908101604052809291908181526020018280546101ad906104ec565b80156101fa5780601f106101cf576101008083540402835291602001916101fa565b820191906000526020600020905b8154815290600101906020018083116101dd57829003601f168201915b50505050509050919050565b8282600080848152602001908152602001600020919061022792919061022d565b50505050565b828054610239906104ec565b90600052602060002090601f01602090048101928261025b57600085556102a2565b82601f1061027457803560ff19168380011785556102a2565b828001600101855582156102a2579182015b828111156102a1578235825591602001919060010190610286565b5b5090506102af91906102b3565b5090565b5b808211156102cc5760008160009055506001016102b4565b5090565b600080fd5b600080fd5b6000819050919050565b6102ed816102da565b81146102f857600080fd5b50565b60008135905061030a816102e4565b92915050565b600060208284031215610326576103256102d0565b5b6000610334848285016102fb565b91505092915050565b600081519050919050565b600082825260208201905092915050565b60005b8381101561037757808201518184015260208101905061035c565b83811115610386576000848401525b50505050565b6000601f19601f8301169050919050565b60006103a88261033d565b6103b28185610348565b93506103c2818560208601610359565b6103cb8161038c565b840191505092915050565b600060208201905081810360008301526103f0818461039d565b905092915050565b600080fd5b600080fd5b600080fd5b60008083601f84011261041d5761041c6103f8565b5b8235905067ffffffffffffffff81111561043a576104396103fd565b5b60208301915083600182028301111561045657610455610402565b5b9250929050565b600080600060408486031215610476576104756102d0565b5b600084013567ffffffffffffffff811115610494576104936102d5565b5b6104a086828701610407565b935093505060206104b3868287016102fb565b9150509250925092565b7f4e487b7100000000000000000000000000000000000000000000000000000000600052602260045260246000fd5b6000600282049050600182168061050457607f821691505b602082108103610517576105166104bd565b5b5091905056fea264697066735822122075a02e4a4572f36d06451928e6c47eac78665315e49a25c47bdc2be520ceb7a164736f6c634300080d0033",
  "immutableReferences": {},
  "source": "// SPDX-License-Identifier: MIT\npragma solidity >=0.4.22 <0.9.0;\n\ncontract HashRecord {\n   // IPFS hash: SHA-256\n   // Fuzzy hash: string\n   mapping(uint256 => string) public fuzzyHashes;\n\n   // Store fuzzy hash mapped to ipfs hash\n   function setFuzzyHash(string calldata fuzzyHash, uint256 ipfsHash) public {\n\tfuzzyHashes[ipfsHash] = fuzzyHash;\n   }\n   \n   // Get fuzzy hash using IPFS hash - user should make sure matching fuzzy hash exists for the given IPFS hash\n   function getFuzzyHash(uint256 ipfsHash) public view returns (string memory) {\n\treturn fuzzyHashes[ipfsHash];\n   }\n}\n",
  "sourcePath": "/home/teo/GitHub/EvidenceChain/ethereum_network/tuffy/contracts/HashRecord.sol",
  "compiler": {
    "name": "solc",
    "version": "0.8.13+commit.abaa5c0e.Emscripten.clang"
  },
  "schemaVersion": "3.4.6",
  "updatedAt": "2022-03-30T11:14:38.185Z",
  "networkType": "ethereum",
  "devdoc": {
    "kind": "dev",
    "methods": {},
    "version": 1
  },
  "userdoc": {
    "kind": "user",
    "methods": {},
    "version": 1
  }
}